{
  "contractName": "CryptoDog",
  "abi": [
    {
      "constant": true,
      "inputs": [],
      "name": "promoCreatedCount",
      "outputs": [
        {
          "name": "",
          "type": "uint256"
        }
      ],
      "payable": false,
      "stateMutability": "view",
      "type": "function"
    },
    {
      "constant": true,
      "inputs": [],
      "name": "ceoAddress",
      "outputs": [
        {
          "name": "",
          "type": "address"
        }
      ],
      "payable": false,
      "stateMutability": "view",
      "type": "function"
    },
    {
      "constant": true,
      "inputs": [
        {
          "name": "",
          "type": "uint256"
        }
      ],
      "name": "DogIndexToApproved",
      "outputs": [
        {
          "name": "",
          "type": "address"
        }
      ],
      "payable": false,
      "stateMutability": "view",
      "type": "function"
    },
    {
      "constant": true,
      "inputs": [],
      "name": "NAME",
      "outputs": [
        {
          "name": "",
          "type": "string"
        }
      ],
      "payable": false,
      "stateMutability": "view",
      "type": "function"
    },
    {
      "constant": true,
      "inputs": [],
      "name": "cooAddress",
      "outputs": [
        {
          "name": "",
          "type": "address"
        }
      ],
      "payable": false,
      "stateMutability": "view",
      "type": "function"
    },
    {
      "constant": true,
      "inputs": [
        {
          "name": "",
          "type": "uint256"
        }
      ],
      "name": "DogIndexToOwner",
      "outputs": [
        {
          "name": "",
          "type": "address"
        }
      ],
      "payable": false,
      "stateMutability": "view",
      "type": "function"
    },
    {
      "constant": true,
      "inputs": [],
      "name": "SYMBOL",
      "outputs": [
        {
          "name": "",
          "type": "string"
        }
      ],
      "payable": false,
      "stateMutability": "view",
      "type": "function"
    },
    {
      "anonymous": false,
      "inputs": [
        {
          "indexed": false,
          "name": "tokenId",
          "type": "uint256"
        },
        {
          "indexed": false,
          "name": "name",
          "type": "string"
        },
        {
          "indexed": false,
          "name": "owner",
          "type": "address"
        }
      ],
      "name": "Birth",
      "type": "event"
    },
    {
      "anonymous": false,
      "inputs": [
        {
          "indexed": false,
          "name": "tokenId",
          "type": "uint256"
        },
        {
          "indexed": false,
          "name": "oldPrice",
          "type": "uint256"
        },
        {
          "indexed": false,
          "name": "newPrice",
          "type": "uint256"
        },
        {
          "indexed": false,
          "name": "prevOwner",
          "type": "address"
        },
        {
          "indexed": false,
          "name": "winner",
          "type": "address"
        },
        {
          "indexed": false,
          "name": "name",
          "type": "string"
        }
      ],
      "name": "TokenSold",
      "type": "event"
    },
    {
      "anonymous": false,
      "inputs": [
        {
          "indexed": false,
          "name": "from",
          "type": "address"
        },
        {
          "indexed": false,
          "name": "to",
          "type": "address"
        },
        {
          "indexed": false,
          "name": "tokenId",
          "type": "uint256"
        }
      ],
      "name": "Transfer",
      "type": "event"
    },
    {
      "anonymous": false,
      "inputs": [
        {
          "indexed": true,
          "name": "owner",
          "type": "address"
        },
        {
          "indexed": true,
          "name": "approved",
          "type": "address"
        },
        {
          "indexed": false,
          "name": "tokenId",
          "type": "uint256"
        }
      ],
      "name": "Approval",
      "type": "event"
    },
    {
      "constant": false,
      "inputs": [],
      "name": "DogToken",
      "outputs": [],
      "payable": false,
      "stateMutability": "nonpayable",
      "type": "function"
    },
    {
      "constant": false,
      "inputs": [
        {
          "name": "_to",
          "type": "address"
        },
        {
          "name": "_tokenId",
          "type": "uint256"
        }
      ],
      "name": "approve",
      "outputs": [],
      "payable": false,
      "stateMutability": "nonpayable",
      "type": "function"
    },
    {
      "constant": true,
      "inputs": [
        {
          "name": "_owner",
          "type": "address"
        }
      ],
      "name": "balanceOf",
      "outputs": [
        {
          "name": "balance",
          "type": "uint256"
        }
      ],
      "payable": false,
      "stateMutability": "view",
      "type": "function"
    },
    {
      "constant": false,
      "inputs": [
        {
          "name": "_name",
          "type": "string"
        },
        {
          "name": "_owner",
          "type": "address"
        },
        {
          "name": "_price",
          "type": "uint256"
        }
      ],
      "name": "createPromoDog",
      "outputs": [],
      "payable": false,
      "stateMutability": "nonpayable",
      "type": "function"
    },
    {
      "constant": false,
      "inputs": [
        {
          "name": "_name",
          "type": "string"
        }
      ],
      "name": "createContractDog",
      "outputs": [],
      "payable": false,
      "stateMutability": "nonpayable",
      "type": "function"
    },
    {
      "constant": true,
      "inputs": [
        {
          "name": "_tokenId",
          "type": "uint256"
        }
      ],
      "name": "getDog",
      "outputs": [
        {
          "name": "dogName",
          "type": "string"
        },
        {
          "name": "sellingPrice",
          "type": "uint256"
        },
        {
          "name": "owner",
          "type": "address"
        }
      ],
      "payable": false,
      "stateMutability": "view",
      "type": "function"
    },
    {
      "constant": true,
      "inputs": [],
      "name": "implementERC",
      "outputs": [
        {
          "name": "",
          "type": "bool"
        }
      ],
      "payable": false,
      "stateMutability": "pure",
      "type": "function"
    },
    {
      "constant": true,
      "inputs": [],
      "name": "name",
      "outputs": [
        {
          "name": "",
          "type": "string"
        }
      ],
      "payable": false,
      "stateMutability": "pure",
      "type": "function"
    },
    {
      "constant": true,
      "inputs": [
        {
          "name": "_tokenId",
          "type": "uint256"
        }
      ],
      "name": "ownerOf",
      "outputs": [
        {
          "name": "owner",
          "type": "address"
        }
      ],
      "payable": false,
      "stateMutability": "view",
      "type": "function"
    },
    {
      "constant": false,
      "inputs": [
        {
          "name": "_to",
          "type": "address"
        }
      ],
      "name": "payout",
      "outputs": [],
      "payable": false,
      "stateMutability": "nonpayable",
      "type": "function"
    },
    {
      "constant": false,
      "inputs": [
        {
          "name": "_tokenId",
          "type": "uint256"
        }
      ],
      "name": "purchase",
      "outputs": [],
      "payable": true,
      "stateMutability": "payable",
      "type": "function"
    },
    {
      "constant": true,
      "inputs": [
        {
          "name": "_tokenId",
          "type": "uint256"
        }
      ],
      "name": "priceOf",
      "outputs": [
        {
          "name": "price",
          "type": "uint256"
        }
      ],
      "payable": false,
      "stateMutability": "view",
      "type": "function"
    },
    {
      "constant": false,
      "inputs": [
        {
          "name": "_newCEO",
          "type": "address"
        }
      ],
      "name": "setCEO",
      "outputs": [],
      "payable": false,
      "stateMutability": "nonpayable",
      "type": "function"
    },
    {
      "constant": false,
      "inputs": [
        {
          "name": "_newCOO",
          "type": "address"
        }
      ],
      "name": "setCOO",
      "outputs": [],
      "payable": false,
      "stateMutability": "nonpayable",
      "type": "function"
    },
    {
      "constant": true,
      "inputs": [],
      "name": "symbol",
      "outputs": [
        {
          "name": "",
          "type": "string"
        }
      ],
      "payable": false,
      "stateMutability": "pure",
      "type": "function"
    },
    {
      "constant": false,
      "inputs": [
        {
          "name": "_tokenId",
          "type": "uint256"
        }
      ],
      "name": "takeOwnership",
      "outputs": [],
      "payable": false,
      "stateMutability": "nonpayable",
      "type": "function"
    },
    {
      "constant": true,
      "inputs": [
        {
          "name": "_owner",
          "type": "address"
        }
      ],
      "name": "tokensOfOwner",
      "outputs": [
        {
          "name": "ownerTokens",
          "type": "uint256[]"
        }
      ],
      "payable": false,
      "stateMutability": "view",
      "type": "function"
    },
    {
      "constant": true,
      "inputs": [],
      "name": "totalSupply",
      "outputs": [
        {
          "name": "total",
          "type": "uint256"
        }
      ],
      "payable": false,
      "stateMutability": "view",
      "type": "function"
    },
    {
      "constant": false,
      "inputs": [
        {
          "name": "_to",
          "type": "address"
        },
        {
          "name": "_tokenId",
          "type": "uint256"
        }
      ],
      "name": "transfer",
      "outputs": [],
      "payable": false,
      "stateMutability": "nonpayable",
      "type": "function"
    },
    {
      "constant": false,
      "inputs": [
        {
          "name": "_from",
          "type": "address"
        },
        {
          "name": "_to",
          "type": "address"
        },
        {
          "name": "_tokenId",
          "type": "uint256"
        }
      ],
      "name": "transferFrom",
      "outputs": [],
      "payable": false,
      "stateMutability": "nonpayable",
      "type": "function"
    }
  ],
  "bytecode": "0x608060405266038d7ea4c6800060005566be78bd4c57d0006001556707d72165f25ed00060025534801561003257600080fd5b5061214a806100426000396000f30060806040526004361061015f576000357c0100000000000000000000000000000000000000000000000000000000900463ffffffff168063035d87f81461016457806305e45546146101f757806306fdde0314610222578063095ea7b3146102b25780630a0f8168146102ff5780630b7e9c441461035657806318160ddd1461039957806323b872dd146103c457806327d7874c146104315780632ba73c1514610474578063607df235146104b75780636352211e146105245780636b0546531461059157806370a08231146105c05780637b6a7dac146106175780637c62e2a4146106805780638462151c1461076057806395d89b41146107f8578063a3f4df7e14610888578063a9059cbb14610918578063b047fb5014610965578063b2e6ceeb146109bc578063b9186d7d146109e9578063c525817814610a2a578063ec854a0414610a97578063efef39a114610aae578063f76f8d7814610ace575b600080fd5b34801561017057600080fd5b506101f5600480360381019080803590602001908201803590602001908080601f0160208091040260200160405190810160405280939291908181526020018383808284378201915050505050509192919290803573ffffffffffffffffffffffffffffffffffffffff16906020019092919080359060200190929190505050610b5e565b005b34801561020357600080fd5b5061020c610c5f565b6040518082815260200191505060405180910390f35b34801561022e57600080fd5b50610237610c65565b6040518080602001828103825283818151815260200191508051906020019080838360005b8381101561027757808201518184015260208101905061025c565b50505050905090810190601f1680156102a45780820380516001836020036101000a031916815260200191505b509250505060405180910390f35b3480156102be57600080fd5b506102fd600480360381019080803573ffffffffffffffffffffffffffffffffffffffff16906020019092919080359060200190929190505050610ca2565b005b34801561030b57600080fd5b50610314610d72565b604051808273ffffffffffffffffffffffffffffffffffffffff1673ffffffffffffffffffffffffffffffffffffffff16815260200191505060405180910390f35b34801561036257600080fd5b50610397600480360381019080803573ffffffffffffffffffffffffffffffffffffffff169060200190929190505050610d98565b005b3480156103a557600080fd5b506103ae610e58565b6040518082815260200191505060405180910390f35b3480156103d057600080fd5b5061042f600480360381019080803573ffffffffffffffffffffffffffffffffffffffff169060200190929190803573ffffffffffffffffffffffffffffffffffffffff16906020019092919080359060200190929190505050610e65565b005b34801561043d57600080fd5b50610472600480360381019080803573ffffffffffffffffffffffffffffffffffffffff169060200190929190505050610eb3565b005b34801561048057600080fd5b506104b5600480360381019080803573ffffffffffffffffffffffffffffffffffffffff169060200190929190505050610f8f565b005b3480156104c357600080fd5b506104e26004803603810190808035906020019092919050505061106b565b604051808273ffffffffffffffffffffffffffffffffffffffff1673ffffffffffffffffffffffffffffffffffffffff16815260200191505060405180910390f35b34801561053057600080fd5b5061054f6004803603810190808035906020019092919050505061109e565b604051808273ffffffffffffffffffffffffffffffffffffffff1673ffffffffffffffffffffffffffffffffffffffff16815260200191505060405180910390f35b34801561059d57600080fd5b506105a6611117565b604051808215151515815260200191505060405180910390f35b3480156105cc57600080fd5b50610601600480360381019080803573ffffffffffffffffffffffffffffffffffffffff169060200190929190505050611120565b6040518082815260200191505060405180910390f35b34801561062357600080fd5b5061067e600480360381019080803590602001908201803590602001908080601f0160208091040260200160405190810160405280939291908181526020018383808284378201915050505050509192919290505050611169565b005b34801561068c57600080fd5b506106ab600480360381019080803590602001909291905050506111d5565b60405180806020018481526020018373ffffffffffffffffffffffffffffffffffffffff1673ffffffffffffffffffffffffffffffffffffffff168152602001828103825285818151815260200191508051906020019080838360005b83811015610723578082015181840152602081019050610708565b50505050905090810190601f1680156107505780820380516001836020036101000a031916815260200191505b5094505050505060405180910390f35b34801561076c57600080fd5b506107a1600480360381019080803573ffffffffffffffffffffffffffffffffffffffff1690602001909291905050506112ea565b6040518080602001828103825283818151815260200191508051906020019060200280838360005b838110156107e45780820151818401526020810190506107c9565b505050509050019250505060405180910390f35b34801561080457600080fd5b5061080d611437565b6040518080602001828103825283818151815260200191508051906020019080838360005b8381101561084d578082015181840152602081019050610832565b50505050905090810190601f16801561087a5780820380516001836020036101000a031916815260200191505b509250505060405180910390f35b34801561089457600080fd5b5061089d611474565b6040518080602001828103825283818151815260200191508051906020019080838360005b838110156108dd5780820151818401526020810190506108c2565b50505050905090810190601f16801561090a5780820380516001836020036101000a031916815260200191505b509250505060405180910390f35b34801561092457600080fd5b50610963600480360381019080803573ffffffffffffffffffffffffffffffffffffffff169060200190929190803590602001909291905050506114ad565b005b34801561097157600080fd5b5061097a6114e5565b604051808273ffffffffffffffffffffffffffffffffffffffff1673ffffffffffffffffffffffffffffffffffffffff16815260200191505060405180910390f35b3480156109c857600080fd5b506109e76004803603810190808035906020019092919050505061150b565b005b3480156109f557600080fd5b50610a1460048036038101908080359060200190929190505050611580565b6040518082815260200191505060405180910390f35b348015610a3657600080fd5b50610a556004803603810190808035906020019092919050505061159d565b604051808273ffffffffffffffffffffffffffffffffffffffff1673ffffffffffffffffffffffffffffffffffffffff16815260200191505060405180910390f35b348015610aa357600080fd5b50610aac6115d0565b005b610acc60048036038101908080359060200190929190505050611654565b005b348015610ada57600080fd5b50610ae3611a0d565b6040518080602001828103825283818151815260200191508051906020019080838360005b83811015610b23578082015181840152602081019050610b08565b50505050905090810190601f168015610b505780820380516001836020036101000a031916815260200191505b509250505060405180910390f35b6000600860009054906101000a900473ffffffffffffffffffffffffffffffffffffffff1673ffffffffffffffffffffffffffffffffffffffff163373ffffffffffffffffffffffffffffffffffffffff16141515610bbc57600080fd5b611388600954101515610bce57600080fd5b829050600073ffffffffffffffffffffffffffffffffffffffff168173ffffffffffffffffffffffffffffffffffffffff161415610c2c57600860009054906101000a900473ffffffffffffffffffffffffffffffffffffffff1690505b600082111515610c3c5760005491505b600960008154809291906001019190505550610c59848284611a46565b50505050565b60095481565b60606040805190810160405280600a81526020017f43727970746f446f677a00000000000000000000000000000000000000000000815250905090565b610cac3382611bc7565b1515610cb757600080fd5b816005600083815260200190815260200160002060006101000a81548173ffffffffffffffffffffffffffffffffffffffff021916908373ffffffffffffffffffffffffffffffffffffffff1602179055508173ffffffffffffffffffffffffffffffffffffffff163373ffffffffffffffffffffffffffffffffffffffff167f8c5be1e5ebec7d5bd14f71427d1e84f3dd0314c0f7b2291e5b200ac8c7c3b925836040518082815260200191505060405180910390a35050565b600760009054906101000a900473ffffffffffffffffffffffffffffffffffffffff1681565b600760009054906101000a900473ffffffffffffffffffffffffffffffffffffffff1673ffffffffffffffffffffffffffffffffffffffff163373ffffffffffffffffffffffffffffffffffffffff161480610e415750600860009054906101000a900473ffffffffffffffffffffffffffffffffffffffff1673ffffffffffffffffffffffffffffffffffffffff163373ffffffffffffffffffffffffffffffffffffffff16145b1515610e4c57600080fd5b610e5581611c33565b50565b6000600a80549050905090565b610e6f8382611bc7565b1515610e7a57600080fd5b610e848282611d4f565b1515610e8f57600080fd5b610e9882611dbb565b1515610ea357600080fd5b610eae838383611df4565b505050565b600760009054906101000a900473ffffffffffffffffffffffffffffffffffffffff1673ffffffffffffffffffffffffffffffffffffffff163373ffffffffffffffffffffffffffffffffffffffff16141515610f0f57600080fd5b600073ffffffffffffffffffffffffffffffffffffffff168173ffffffffffffffffffffffffffffffffffffffff1614151515610f4b57600080fd5b80600760006101000a81548173ffffffffffffffffffffffffffffffffffffffff021916908373ffffffffffffffffffffffffffffffffffffffff16021790555050565b600760009054906101000a900473ffffffffffffffffffffffffffffffffffffffff1673ffffffffffffffffffffffffffffffffffffffff163373ffffffffffffffffffffffffffffffffffffffff16141515610feb57600080fd5b600073ffffffffffffffffffffffffffffffffffffffff168173ffffffffffffffffffffffffffffffffffffffff161415151561102757600080fd5b80600860006101000a81548173ffffffffffffffffffffffffffffffffffffffff021916908373ffffffffffffffffffffffffffffffffffffffff16021790555050565b60056020528060005260406000206000915054906101000a900473ffffffffffffffffffffffffffffffffffffffff1681565b60006003600083815260200190815260200160002060009054906101000a900473ffffffffffffffffffffffffffffffffffffffff169050600073ffffffffffffffffffffffffffffffffffffffff168173ffffffffffffffffffffffffffffffffffffffff161415151561111257600080fd5b919050565b60006001905090565b6000600460008373ffffffffffffffffffffffffffffffffffffffff1673ffffffffffffffffffffffffffffffffffffffff168152602001908152602001600020549050919050565b600860009054906101000a900473ffffffffffffffffffffffffffffffffffffffff1673ffffffffffffffffffffffffffffffffffffffff163373ffffffffffffffffffffffffffffffffffffffff161415156111c557600080fd5b6111d28130600054611a46565b50565b60606000806000600a858154811015156111eb57fe5b906000526020600020019050806000018054600181600116156101000203166002900480601f01602080910402602001604051908101604052809291908181526020018280546001816001161561010002031660029004801561128f5780601f106112645761010080835404028352916020019161128f565b820191906000526020600020905b81548152906001019060200180831161127257829003601f168201915b50505050509350600660008681526020019081526020016000205492506003600086815260200190815260200160002060009054906101000a900473ffffffffffffffffffffffffffffffffffffffff169150509193909250565b60606000606060008060006112fe87611120565b945060008514156113415760006040519080825280602002602001820160405280156113395781602001602082028038833980820191505090505b50955061142d565b846040519080825280602002602001820160405280156113705781602001602082028038833980820191505090505b50935061137b610e58565b925060009150600090505b8281111515611429578673ffffffffffffffffffffffffffffffffffffffff166003600083815260200190815260200160002060009054906101000a900473ffffffffffffffffffffffffffffffffffffffff1673ffffffffffffffffffffffffffffffffffffffff16141561141c5780848381518110151561140557fe5b906020019060200201818152505081806001019250505b8080600101915050611386565b8395505b5050505050919050565b60606040805190810160405280600981526020017f446f677a546f6b656e0000000000000000000000000000000000000000000000815250905090565b6040805190810160405280600a81526020017f43727970746f446f677a0000000000000000000000000000000000000000000081525081565b6114b73382611bc7565b15156114c257600080fd5b6114cb82611dbb565b15156114d657600080fd5b6114e1338383611df4565b5050565b600860009054906101000a900473ffffffffffffffffffffffffffffffffffffffff1681565b6000803391506003600084815260200190815260200160002060009054906101000a900473ffffffffffffffffffffffffffffffffffffffff16905061155082611dbb565b151561155b57600080fd5b6115658284611d4f565b151561157057600080fd5b61157b818385611df4565b505050565b600060066000838152602001908152602001600020549050919050565b60036020528060005260406000206000915054906101000a900473ffffffffffffffffffffffffffffffffffffffff1681565b33600760006101000a81548173ffffffffffffffffffffffffffffffffffffffff021916908373ffffffffffffffffffffffffffffffffffffffff16021790555033600860006101000a81548173ffffffffffffffffffffffffffffffffffffffff021916908373ffffffffffffffffffffffffffffffffffffffff160217905550565b60008060008060006003600087815260200190815260200160002060009054906101000a900473ffffffffffffffffffffffffffffffffffffffff169450339350600660008781526020019081526020016000205492508373ffffffffffffffffffffffffffffffffffffffff168573ffffffffffffffffffffffffffffffffffffffff16141515156116e657600080fd5b6116ef84611dbb565b15156116fa57600080fd5b82341015151561170957600080fd5b61171e61171784605e611ff6565b6064612031565b915061172a348461204c565b90506001548310156117675761174b6117448460c8611ff6565b605e612031565b60066000888152602001908152602001600020819055506117d0565b6002548310156117a25761178661177f846078611ff6565b605e612031565b60066000888152602001908152602001600020819055506117cf565b6117b76117b0846073611ff6565b605e612031565b60066000888152602001908152602001600020819055505b5b6117db858588611df4565b3073ffffffffffffffffffffffffffffffffffffffff168573ffffffffffffffffffffffffffffffffffffffff16141515611858578473ffffffffffffffffffffffffffffffffffffffff166108fc839081150290604051600060405180830381858888f19350505050158015611856573d6000803e3d6000fd5b505b7e8201e7bcbf010c2c07de59d6e97cb7e3cf67a46125c49cbc89b9d2cde1f48f8684600660008a8152602001908152602001600020548888600a8c81548110151561189f57fe5b90600052602060002001600001604051808781526020018681526020018581526020018473ffffffffffffffffffffffffffffffffffffffff1673ffffffffffffffffffffffffffffffffffffffff1681526020018373ffffffffffffffffffffffffffffffffffffffff1673ffffffffffffffffffffffffffffffffffffffff168152602001806020018281038252838181546001816001161561010002031660029004815260200191508054600181600116156101000203166002900480156119ab5780601f10611980576101008083540402835291602001916119ab565b820191906000526020600020905b81548152906001019060200180831161198e57829003601f168201915b505097505050505050505060405180910390a13373ffffffffffffffffffffffffffffffffffffffff166108fc829081150290604051600060405180830381858888f19350505050158015611a04573d6000803e3d6000fd5b50505050505050565b6040805190810160405280600981526020017f446f677a546f6b656e000000000000000000000000000000000000000000000081525081565b611a4e612065565b60006020604051908101604052808681525091506001600a839080600181540180825580915050906001820390600052602060002001600090919290919091506000820151816000019080519060200190611aaa929190612079565b5050500390508063ffffffff1681141515611ac457600080fd5b7fb3b0cf861f168bcdb275c69da97b2543631552ba562628aa3c7317d4a6089ef281868660405180848152602001806020018373ffffffffffffffffffffffffffffffffffffffff1673ffffffffffffffffffffffffffffffffffffffff168152602001828103825284818151815260200191508051906020019080838360005b83811015611b60578082015181840152602081019050611b45565b50505050905090810190601f168015611b8d5780820380516001836020036101000a031916815260200191505b5094505050505060405180910390a1826006600083815260200190815260200160002081905550611bc060008583611df4565b5050505050565b60006003600083815260200190815260200160002060009054906101000a900473ffffffffffffffffffffffffffffffffffffffff1673ffffffffffffffffffffffffffffffffffffffff168373ffffffffffffffffffffffffffffffffffffffff1614905092915050565b600073ffffffffffffffffffffffffffffffffffffffff168173ffffffffffffffffffffffffffffffffffffffff161415611ced57600760009054906101000a900473ffffffffffffffffffffffffffffffffffffffff1673ffffffffffffffffffffffffffffffffffffffff166108fc3073ffffffffffffffffffffffffffffffffffffffff16319081150290604051600060405180830381858888f19350505050158015611ce7573d6000803e3d6000fd5b50611d4c565b8073ffffffffffffffffffffffffffffffffffffffff166108fc3073ffffffffffffffffffffffffffffffffffffffff16319081150290604051600060405180830381858888f19350505050158015611d4a573d6000803e3d6000fd5b505b50565b60008273ffffffffffffffffffffffffffffffffffffffff166005600084815260200190815260200160002060009054906101000a900473ffffffffffffffffffffffffffffffffffffffff1673ffffffffffffffffffffffffffffffffffffffff1614905092915050565b60008073ffffffffffffffffffffffffffffffffffffffff168273ffffffffffffffffffffffffffffffffffffffff1614159050919050565b600460008373ffffffffffffffffffffffffffffffffffffffff1673ffffffffffffffffffffffffffffffffffffffff16815260200190815260200160002060008154809291906001019190505550816003600083815260200190815260200160002060006101000a81548173ffffffffffffffffffffffffffffffffffffffff021916908373ffffffffffffffffffffffffffffffffffffffff160217905550600073ffffffffffffffffffffffffffffffffffffffff168373ffffffffffffffffffffffffffffffffffffffff16141515611f5257600460008473ffffffffffffffffffffffffffffffffffffffff1673ffffffffffffffffffffffffffffffffffffffff16815260200190815260200160002060008154809291906001900391905055506005600082815260200190815260200160002060006101000a81549073ffffffffffffffffffffffffffffffffffffffff02191690555b7fddf252ad1be2c89b69c2b068fc378daa952ba7f163c4a11628f55a4df523b3ef838383604051808473ffffffffffffffffffffffffffffffffffffffff1673ffffffffffffffffffffffffffffffffffffffff1681526020018373ffffffffffffffffffffffffffffffffffffffff1673ffffffffffffffffffffffffffffffffffffffff168152602001828152602001935050505060405180910390a1505050565b600080600084141561200b576000915061202a565b828402905082848281151561201c57fe5b0414151561202657fe5b8091505b5092915050565b600080828481151561203f57fe5b0490508091505092915050565b600082821115151561205a57fe5b818303905092915050565b602060405190810160405280606081525090565b828054600181600116156101000203166002900490600052602060002090601f016020900481019282601f106120ba57805160ff19168380011785556120e8565b828001600101855582156120e8579182015b828111156120e75782518255916020019190600101906120cc565b5b5090506120f591906120f9565b5090565b61211b91905b808211156121175760008160009055506001016120ff565b5090565b905600a165627a7a72305820a6fbed9ce9d4a3bc63154b9fd233fe59fc814f3b1bb304030d225f3ea551959c0029",
  "source": "pragma solidity ^0.4.18; \r\n\r\n\r\ncontract ERC {\r\n  \r\n  function approve(address _to, uint256 _tokenId) public;\r\n  function balanceOf(address _owner) public view returns (uint256 balance);\r\n  function implementERC() public pure returns (bool);\r\n  function ownerOf(uint256 _tokenId) public view returns (address addr);\r\n  function takeOwnership(uint256 _tokenId) public;\r\n  function totalSupply() public view returns (uint256 total);\r\n  function transferFrom(address _from, address _to, uint256 _tokenId) public;\r\n  function transfer(address _to, uint256 _tokenId) public;\r\n\r\n  event Transfer(address indexed from, address indexed to, uint256 tokenId);\r\n  event Approval(address indexed owner, address indexed approved, uint256 tokenId);\r\n  }\r\n\r\n\r\ncontract CryptoDog is ERC {\r\n\r\n  event Birth(uint256 tokenId, string name, address owner);\r\n  \r\n  event TokenSold(uint256 tokenId, uint256 oldPrice, uint256 newPrice, address prevOwner, address winner, string name);\r\n\r\n  event Transfer(address from, address to, uint256 tokenId);\r\n\r\n  string public constant NAME = \"CryptoDogz\"; \r\n  string public constant SYMBOL = \"DogzToken\";\r\n\r\n  uint256 private startingPrice = 0.001 ether;\r\n  uint256 private constant PROMO_CREATION_LIMIT = 5000;\r\n  uint256 private firstStepLimit =  0.053613 ether;\r\n  uint256 private secondStepLimit = 0.564957 ether;\r\n\r\n\r\n  mapping (uint256 => address) public DogIndexToOwner;\r\n\r\n  mapping (address => uint256) private ownershipTokenCount;\r\n\r\n  mapping (uint256 => address) public DogIndexToApproved;\r\n\r\n  mapping (uint256 => uint256) private DogIndexToPrice;\r\n\r\n  address public ceoAddress;\r\n  address public cooAddress;\r\n\r\n  uint256 public promoCreatedCount;\r\n\r\n\r\n  struct Dog {\r\n    string name;\r\n  }\r\n\r\n  Dog[] private dogs;\r\n\r\n  modifier onlyCEO() {\r\n    require(msg.sender == ceoAddress);\r\n    _;\r\n  }\r\n\r\n  modifier onlyCOO() {\r\n    require(msg.sender == cooAddress);\r\n    _;\r\n  }\r\n\r\n  modifier onlyCLevel() {\r\n    require(\r\n      msg.sender == ceoAddress ||\r\n      msg.sender == cooAddress\r\n    );\r\n    _;\r\n  }\r\n\r\n  function DogToken() public {\r\n    ceoAddress = msg.sender;\r\n    cooAddress = msg.sender;\r\n  }\r\n\r\n  function approve(\r\n    address _to,\r\n    uint256 _tokenId\r\n  ) public {\r\n   \r\n    require(_owns(msg.sender, _tokenId));\r\n\r\n    DogIndexToApproved[_tokenId] = _to;\r\n\r\n    emit Approval(msg.sender, _to, _tokenId);\r\n  }\r\n\r\n  function balanceOf(address _owner) public view returns (uint256 balance) {\r\n    return ownershipTokenCount[_owner];\r\n  }\r\n\r\n  function createPromoDog(string _name, address _owner,  uint256 _price) public onlyCOO {\r\n    require(promoCreatedCount < PROMO_CREATION_LIMIT);\r\n\r\n    address dogOwner = _owner;\r\n    if (dogOwner == address(0)) {\r\n      dogOwner = cooAddress;\r\n    }\r\n\r\n    if (_price <= 0) {\r\n      _price = startingPrice;\r\n    }\r\n\r\n    promoCreatedCount++;\r\n    _createDog(_name, dogOwner, _price);\r\n  }\r\n\r\n  function createContractDog(string _name) public onlyCOO {\r\n    _createDog(_name, address(this), startingPrice);\r\n  }\r\n\r\n  function getDog(uint256 _tokenId) public view returns (\r\n    string dogName,\r\n    uint256 sellingPrice,\r\n    address owner\r\n  ) {\r\n    Dog storage dog = dogs[_tokenId];\r\n    dogName = dog.name;\r\n    sellingPrice = DogIndexToPrice[_tokenId];\r\n    owner = DogIndexToOwner[_tokenId];\r\n  }\r\n\r\n  function implementERC() public pure returns (bool) {\r\n    return true;\r\n  }\r\n\r\n  function name() public pure returns (string) {\r\n    return NAME;\r\n  }\r\n\r\n  function ownerOf(uint256 _tokenId)\r\n    public\r\n    view\r\n    returns (address owner)\r\n  {\r\n    owner = DogIndexToOwner[_tokenId];\r\n    require(owner != address(0));\r\n  }\r\n\r\n  function payout(address _to) public onlyCLevel {\r\n    _payout(_to);\r\n  }\r\n\r\n  function purchase(uint256 _tokenId) public payable {\r\n    address oldOwner = DogIndexToOwner[_tokenId];\r\n    address newOwner = msg.sender;\r\n\r\n    uint256 sellingPrice = DogIndexToPrice[_tokenId];\r\n\r\n    require(oldOwner != newOwner);\r\n\r\n    require(_addressNotNull(newOwner));\r\n\r\n    require(msg.value >= sellingPrice);\r\n\r\n    uint256 payment = uint256(SafeMath.div(SafeMath.mul(sellingPrice, 94), 100));\r\n    uint256 purchaseExcess = SafeMath.sub(msg.value, sellingPrice);\r\n\r\n    if (sellingPrice < firstStepLimit) {\r\n    \r\n      DogIndexToPrice[_tokenId] = SafeMath.div(SafeMath.mul(sellingPrice, 200), 94);\r\n    } else if (sellingPrice < secondStepLimit) {\r\n    \r\n      DogIndexToPrice[_tokenId] = SafeMath.div(SafeMath.mul(sellingPrice, 120), 94);\r\n    } else {\r\n    \r\n      DogIndexToPrice[_tokenId] = SafeMath.div(SafeMath.mul(sellingPrice, 115), 94);\r\n    }\r\n\r\n    _transfer(oldOwner, newOwner, _tokenId);\r\n\r\n    if (oldOwner != address(this)) {\r\n      oldOwner.transfer(payment); \r\n    }\r\n\r\n    emit TokenSold(_tokenId, sellingPrice, DogIndexToPrice[_tokenId], oldOwner, newOwner, dogs[_tokenId].name);\r\n\r\n    msg.sender.transfer(purchaseExcess);\r\n  }\r\n\r\n  function priceOf(uint256 _tokenId) public view returns (uint256 price) {\r\n    return DogIndexToPrice[_tokenId];\r\n  }\r\n\r\n  function setCEO(address _newCEO) public onlyCEO {\r\n    require(_newCEO != address(0));\r\n\r\n    ceoAddress = _newCEO;\r\n  }\r\n\r\n  function setCOO(address _newCOO) public onlyCEO {\r\n    require(_newCOO != address(0));\r\n\r\n    cooAddress = _newCOO;\r\n  }\r\n\r\n  \r\n  function symbol() public pure returns (string) {\r\n    return SYMBOL;\r\n  }\r\n\r\n\r\n  function takeOwnership(uint256 _tokenId) public {\r\n    address newOwner = msg.sender;\r\n    address oldOwner = DogIndexToOwner[_tokenId];\r\n\r\n\r\n    require(_addressNotNull(newOwner));\r\n\r\n    require(_approved(newOwner, _tokenId));\r\n\r\n    _transfer(oldOwner, newOwner, _tokenId);\r\n  }\r\n\r\n  function tokensOfOwner(address _owner) public view returns(uint256[] ownerTokens) {\r\n    uint256 tokenCount = balanceOf(_owner);\r\n    if (tokenCount == 0) {\r\n        \r\n      return new uint256[](0);\r\n    } else {\r\n      uint256[] memory result = new uint256[](tokenCount);\r\n      uint256 totalDogs = totalSupply();\r\n      uint256 resultIndex = 0;\r\n\r\n      uint256 dogId;\r\n      for (dogId = 0; dogId <= totalDogs; dogId++) {\r\n        if (DogIndexToOwner[dogId] == _owner) {\r\n          result[resultIndex] = dogId;\r\n          resultIndex++;\r\n        }\r\n      }\r\n      return result;\r\n    }\r\n  }\r\n\r\n\r\n  function totalSupply() public view returns (uint256 total) {\r\n    return dogs.length;\r\n  }\r\n\r\n\r\n  function transfer(\r\n    address _to,\r\n    uint256 _tokenId\r\n  ) public {\r\n    require(_owns(msg.sender, _tokenId));\r\n    require(_addressNotNull(_to));\r\n\r\n    _transfer(msg.sender, _to, _tokenId);\r\n  }\r\n\r\n  function transferFrom(\r\n    address _from,\r\n    address _to,\r\n    uint256 _tokenId\r\n  ) public {\r\n    require(_owns(_from, _tokenId));\r\n    require(_approved(_to, _tokenId));\r\n    require(_addressNotNull(_to));\r\n\r\n    _transfer(_from, _to, _tokenId);\r\n  }\r\n\r\n  function _addressNotNull(address _to) private pure returns (bool) {\r\n    return _to != address(0);\r\n  }\r\n\r\n\r\n  function _approved(address _to, uint256 _tokenId) private view returns (bool) {\r\n    return DogIndexToApproved[_tokenId] == _to;\r\n  }\r\n\r\n\r\n  function _createDog(string _name, address _owner, uint256 _price) private {\r\n    Dog memory _dog = Dog({\r\n      name: _name\r\n    });\r\n    uint256 newDogId = dogs.push(_dog) - 1;\r\n\r\n    require(newDogId == uint256(uint32(newDogId)));\r\n\r\n    emit Birth(newDogId, _name, _owner);\r\n\r\n    DogIndexToPrice[newDogId] = _price;\r\n\r\n\r\n    _transfer(address(0), _owner, newDogId);\r\n  }\r\n\r\n \r\n  function _owns(address claimant, uint256 _tokenId) private view returns (bool) {\r\n    return claimant == DogIndexToOwner[_tokenId];\r\n  }\r\n\r\n\r\n  function _payout(address _to) private {\r\n    if (_to == address(0)) {\r\n      ceoAddress.transfer(address(this).balance);\r\n    } else {\r\n      _to.transfer(address(this).balance);\r\n    }\r\n  }\r\n\r\n\r\n  function _transfer(address _from, address _to, uint256 _tokenId) private {\r\n    \r\n    ownershipTokenCount[_to]++;\r\n  \r\n    DogIndexToOwner[_tokenId] = _to;\r\n\r\n\r\n    if (_from != address(0)) {\r\n      ownershipTokenCount[_from]--;\r\n      delete DogIndexToApproved[_tokenId];\r\n    }\r\n\r\n    emit Transfer(_from, _to, _tokenId);\r\n  }\r\n}\r\nlibrary SafeMath {\r\n\r\n  function mul(uint256 a, uint256 b) internal pure returns (uint256) {\r\n    if (a == 0) {\r\n      return 0;\r\n    }\r\n    uint256 c = a * b;\r\n    assert(c / a == b);\r\n    return c;\r\n  }\r\n\r\n  function div(uint256 a, uint256 b) internal pure returns (uint256) {\r\n    uint256 c = a / b;\r\n    return c;\r\n  }\r\n\r\n  function sub(uint256 a, uint256 b) internal pure returns (uint256) {\r\n    assert(b <= a);\r\n    return a - b;\r\n  }\r\n\r\n  function add(uint256 a, uint256 b) internal pure returns (uint256) {\r\n    uint256 c = a + b;\r\n    assert(c >= a);\r\n    return c;\r\n  }\r\n}\r\n",
  "sourcePath": "D:\\Project\\Crypto\\contracts\\CryptoDog.sol",
  "compiler": {
    "name": "solc",
    "version": "0.4.24+commit.e67f0147.Emscripten.clang"
  },
  "schemaVersion": "2.0.1",
  "updatedAt": "2018-07-17T18:17:49.897Z"
}